:020000040800F2
:1000000000800120FD4800084947000855470008C6
:100010005B470008614700086747000800000000D0
:100020000000000000000000000000006D47000814
:100030007947000800000000854700089147000844
:100040004D4900084D4900084D4900084D49000838
:100050004D4900084D4900084D4900084D49000828
:100060004D4900084D4900084D4900084D49000818
:100070004D4900084D4900084D4900084D49000808
:100080004D4900084D4900084D4900080000000096
:100090000000000000000000000000004D490008C2
:1000A0004D4900084D4900084D4900084D490008D8
:1000B0004D4900084D4900084D4900084D490008C8
:1000C0004D4900084D4900084D4900084D490008B8
:1000D0004D4900084D4900084D4900080000000046
:1000E0009D4700084D4900084D49000800000000E8
:1000F0000000000000000000000000004D49000862
:10010000000000004D4900084D4900084D49000815
:1001100000000000000000000000000000000000DF
:100120004D490008912E0008952400084D4900080B
:100130004D49000800000000000000000000000021
:100140000000000000000000000000004D49000811
:100150004D4900084D4900084D4900084D49000827
:100160004D4900084D490008000000000000000053
:10017000000000000000000000000000000000007F
:10018000000000004D4900080000000000000000D1
:040190004D490008CD
:1001A00010B5054C237833B9044B13B10448AFF3B1
:1001B00000800123237010BD840000200000000097
:1001C000A05700080C4B43B10C480D4910B5AFF3D4
:1001D00000800C48036823B910BD0A48036833B98E
:1001E0007047094B002BF7D0BDE810401847064B6D
:1001F000002BF5D0184700BF00000000A0570008F2
:1002000088000020840000200000000053B94AB993
:10021000002908BF00281CBF4FF0FF314FF0FF300E
:1002200000F07AB9ADF1080C6DE904CE00F006F8E3
:10023000DDF804E0DDE9022304B070472DE9F04762
:100240008C460D460446089E002B51D18A42174623
:100250006DD9B2FA82FEBEF1000F0BD0CEF1200CA8
:1002600001FA0EF520FA0CFC02FA0EF74CEA050C26
:1002700000FA0EF44FEA174A250CBCFBFAF81FFAF5
:1002800087F90AFB18CC45EA0C4508FB09F3AB4299
:100290000AD9ED1908F1FF3280F02381AB4240F218
:1002A0002081A8F102083D44ED1AA4B2B5FBFAF092
:1002B0000AFB105544EA054400FB09F9A14509D998
:1002C000E41900F1FF3380F00A81A14540F2078173
:1002D00002383C44A4EB090440EA08400021002E07
:1002E00061D024FA0EF4002334607360BDE8F08717
:1002F0008B4207D9002E54D0002186E82100084601
:10030000BDE8F087B3FA83F1002940F08E80AB425C
:1003100002D3824200F2FA80841A65EB03050120C1
:10032000AC46002E3FD086E81010BDE8F08712B929
:100330000127B7FBF2F7B7FA87FEBEF1000F34D101
:10034000EB1B3A0C1FFA87FC0121B3FBF2F8250CDA
:1003500002FB183345EA03450CFB08F3AB4207D90F
:10036000ED1908F1FF3002D2AB4200F2D180804695
:10037000ED1AA3B2B5FBF2F002FB105543EA0544B7
:100380000CFB00FCA44507D9E41900F1FF3302D2AD
:10039000A44500F2B8801846A4EB0C0440EA0840DB
:1003A0009DE731463046BDE8F087CEF1200405FADE
:1003B0000EF307FA0EF720FA04F83A0C25FA04F4C3
:1003C00048EA0308B4FBF2F14FEA184502FB114476
:1003D0001FFA87FC45EA044501FB0CF3AB4200FA27
:1003E0000EF409D9ED1901F1FF3080F08A80AB429B
:1003F00040F2878002393D44EB1A1FFA88F5B3FBBF
:10040000F2F002FB103345EA034500FB0CF3AB426C
:1004100007D9ED1900F1FF386FD2AB426DD9023820
:100420003D44EB1A40EA01418FE7C1F1200722FA6F
:1004300007F88B4005FA01F448EA030320FA07FEA7
:100440004FEA134CFD404EEA040EB5FBFCF94FEAAF
:100450001E440CFB19551FFA83F844EA054509FBB5
:1004600008F4AC4202FA01F200FA01FA08D9ED18D8
:1004700009F1FF3043D2AC4241D9A9F102091D4430
:100480002D1B1FFA8EFEB5FBFCF00CFB10554EEA3F
:10049000054400FB08F8A04507D9E41800F1FF3532
:1004A00029D2A04527D902381C4440EA0940A4EBD0
:1004B0000804A0FB02894C45C6464D4615D312D010
:1004C00056B1BAEB0E0364EB050404FA07F7CB4010
:1004D0001F43CC40376074600021BDE8F0871846A8
:1004E000F8E69046E0E6C245EAD2B8EB020E69EBC8
:1004F00003050138E4E72846D7E7404691E78146FF
:10050000BEE7014678E702383C4445E7084608E77D
:10051000A8F102083D442BE7704700BF000000002F
:1005200001F0FF01102A2BDB10F0070F08D010F8A4
:10053000013B013A8B422DD010F0070F42B3F6D1A8
:10054000F0B441EA012141EA014122F007047FF0C1
:1005500000070023F0E80256083C85EA010586EA18
:10056000010685FA47F5A3FA87F586FA47F6A5FA54
:1005700087F68EB9EED1F0BC01F0FF0102F0070260
:1005800032B110F8013B013A83EA010313B1F8D10B
:100590000020704701387047002D06BF35460338EC
:1005A000073815F0010F07D1013015F4807F02BF25
:1005B000013015F4C03F0130F0BC0138704700BF76
:1005C00080B500AF0E4A0E4B1B6843F400731360F6
:1005D0000B4A0B4B1B6843F480631360084A084BBB
:1005E0001B6843F480731360032000F043F900207C
:1005F00000F008F803F0A0FF0023184680BD00BFFC
:10060000003C024080B582B000AF7860124B1A689F
:10061000124B1B7819464FF47A73B3FBF1F3B2FB1C
:10062000F3F3184600F05BF90346002B01D00123D9
:100630000EE07B680F2B0AD8002279684FF0FF305C
:1006400000F023F9064A7B681360002300E00123D1
:1006500018460837BD4680BD1C000020040000205D
:100660000000002080B400AF054B1B781A46054BF4
:100670001B681344034A136000BFBD4680BC70472B
:1006800004000020A000002080B400AF024B1B68D3
:100690001846BD4680BC7047A000002080B584B0DD
:1006A00000AF7860FFF7F0FFB8607B68FB60FB6825
:1006B000B3F1FF3F05D0094B1B781A46FB68134482
:1006C000FB6000BFFFF7E0FF0246BB68D21AFB6881
:1006D0009A42F7D300BF1037BD4680BD040000200A
:1006E00080B485B000AF78607B6803F00703FB60DF
:1006F0000C4BDB68BB60BA684FF6FF031340BB606E
:10070000FB681A02BB68134343F0BF6343F4003332
:10071000BB60044ABB68D36000BF1437BD4680BCD1
:10072000704700BF00ED00E080B400AF044BDB6811
:100730001B0A03F007031846BD4680BC704700BF84
:1007400000ED00E080B483B000AF0346FB7197F981
:100750000730002B0BDB084997F907305B09FA7962
:1007600002F01F02012000FA02F241F8232000BF2C
:100770000C37BD4680BC704700E100E080B483B018
:1007800000AF03463960FB7197F90730002B0ADB95
:100790000D4997F907303A68D2B21201D2B20B4430
:1007A00083F800230AE00949FB7903F00F03043BB7
:1007B0003A68D2B21201D2B20B441A7600BF0C379B
:1007C000BD4680BC704700BF00E100E000ED00E0E6
:1007D00080B489B000AFF860B9607A60FB6803F05C
:1007E0000703FB61FB69C3F10703042B28BF042344
:1007F000BB61FB690433062B02D9FB69033B00E0B4
:1008000000237B610122BB6902FA03F35A1EBB6815
:100810001A407B699A4001217B6901FA03F3591E52
:100820007B680B40134318462437BD4680BC704795
:1008300080B582B000AF78607B68013BB3F1807F08
:1008400001D301230FE00A4A7B68013B53600F216B
:100850004FF0FF30FFF792FF054B00229A60044BE8
:1008600007221A60002318460837BD4680BD00BF26
:1008700010E000E080B582B000AF78607868FFF7E4
:100880002FFF00BF0837BD4680BD80B586B000AFE2
:100890000346B9607A60FB7300237B61FFF744FF76
:1008A00078617A68B9687869FFF792FF024697F92C
:1008B0000F3011461846FFF761FF00BF1837BD46DD
:1008C00080BD80B582B000AF0346FB7197F9073059
:1008D0001846FFF737FF00BF0837BD4680BD80B51B
:1008E00082B000AF78607868FFF7A2FF0346184631
:1008F0000837BD4680BD000080B586B000AF786087
:1009000000237B61FFF7C0FE38617B68002B01D1BB
:10091000012399E07B68002283F834207B6802225F
:1009200083F835207B681B687A681268126822F0A9
:1009300001021A600FE0FFF7A7FE02463B69D31AD7
:10094000052B08D97B6820225A657B68032283F82F
:100950003520032378E07B681B681B6803F00103E4
:10096000002BE8D17B681B681B687B617A69384B78
:1009700013407B617B685A687B689B681A437B687D
:10098000DB681A437B681B691A437B685B691A43FF
:100990007B689B691A437B68DB691A437B681B6A27
:1009A00013437A6913437B617B685B6A042B07D12D
:1009B0007B68DA6A7B681B6B13437A6913437B613C
:1009C0007B681B687A691A607B681B685B697B615E
:1009D0007B6923F007037B617B685B6A7A69134359
:1009E0007B617B685B6A042B17D17B689B6A7A69A1
:1009F00013437B617B68DB6A002B0ED0786800F0C4
:100A00005DF80346002B08D07B6840225A657B685E
:100A1000012283F83520012316E07B681B687A6980
:100A20005A61786800F016F80346FB607B68DB6D5E
:100A30003F229A40FB689A607B6800225A657B6877
:100A4000012283F83520002318461837BD4680BDA3
:100A50003F8010F080B485B000AF78607B681B6881
:100A6000DBB2103B134AA2FB03231B09FB60124AB3
:100A7000FB6813441B781A467B68DA65FB68032B16
:100A800009D97B681B6823F47F7323F003031A1DC5
:100A90007B689A6507E07B681B6823F47F7323F00B
:100AA00003037A6893657B689B6D18461437BD46CF
:100AB00080BC7047ABAAAAAA2058000880B485B0B1
:100AC00000AF78600023FB737B689B6ABB607B6828
:100AD0009B69002B1FD1BB68032B55D801A252F88C
:100AE00023F000BFF50A0008070B0008F50A00080C
:100AF000890B00087B68DB6A03F08073002B45D00C
:100B00000123FB7342E07B68DB6AB3F1C07F3FD116
:100B10000123FB733CE07B689B69B3F5005F21D147
:100B2000BB68032B36D801A252F823F03D0B000816
:100B3000430B00083D0B0008550B00080123FB7315
:100B40002FE07B68DB6A03F08073002B24D0012345
:100B5000FB7321E07B68DB6AB3F1C07F1ED1012308
:100B6000FB731BE0BB68022B02D9032B03D018E0F8
:100B70000123FB7315E07B68DB6A03F08073002BB5
:100B80000ED00123FB730BE000BF0AE000BF08E0BA
:100B900000BF06E000BF04E000BF02E000BF00E0CD
:100BA00000BFFB7B18461437BD4680BC704700BFB2
:100BB00080B489B000AF7860396000237B61002386
:100BC0003B610023BB610023FB6159E10122FB690A
:100BD00002FA03F37B613B681A687B6913403B614F
:100BE0003A697B699A4240F048813B685B68022B16
:100BF00003D03B685B68122B23D1FB69DA087B6862
:100C0000083253F82230BB61FB6903F007039B00F5
:100C10000F2202FA03F3DB43BA691340BB613B685E
:100C20001A69FB6903F007039B0002FA03F3BA6930
:100C30001343BB61FB69DA087B680832B96943F882
:100C400022107B681B68BB61FB695B00032202FA10
:100C500003F3DB43BA691340BB613B685B6803F095
:100C60000302FB695B0002FA03F3BA691343BB6139
:100C70007B68BA691A603B685B68012B0BD03B68E4
:100C80005B68022B07D03B685B68112B03D03B6885
:100C90005B68122B30D17B689B68BB61FB695B0092
:100CA000032202FA03F3DB43BA691340BB613B68DA
:100CB000DA68FB695B0002FA03F3BA691343BB61AC
:100CC0007B68BA699A607B685B68BB610122FB69DB
:100CD00002FA03F3DB43BA691340BB613B685B680C
:100CE0001B0903F00102FB6902FA03F3BA6913431B
:100CF000BB617B68BA695A607B68DB68BB61FB6972
:100D00005B00032202FA03F3DB43BA691340BB61C1
:100D10003B689A68FB695B0002FA03F3BA69134304
:100D2000BB617B68BA69DA603B685B6803F080533B
:100D3000002B00F0A2800023FB60564A554B5B6CF1
:100D400043F480435364534B5B6C03F48043FB6078
:100D5000FB68514AFB699B08023352F82330BB61A0
:100D6000FB6903F003039B000F2202FA03F3DB434A
:100D7000BA691340BB617B68484A934219D07B68CB
:100D8000474A934213D07B68464A93420DD07B6812
:100D9000454A934207D07B68444A934201D10423D9
:100DA00008E0072306E0032304E0022302E0012316
:100DB00000E00023FA6902F0030292009340BA694E
:100DC0001343BB613449FB699B080233BA6941F89C
:100DD0002320374B1B68BB613B69DB43BA69134077
:100DE000BB613B685B6803F48033002B03D0BA69B6
:100DF0003B691343BB612E4ABB6913602C4B5B6894
:100E0000BB613B69DB43BA691340BB613B685B680C
:100E100003F40033002B03D0BA693B691343BB6171
:100E2000234ABB695360224B9B68BB613B69DB4330
:100E3000BA691340BB613B685B6803F48013002B05
:100E400003D0BA693B691343BB61194ABB6993601C
:100E5000174BDB68BB613B69DB43BA691340BB617D
:100E60003B685B6803F40013002B03D0BA693B694D
:100E70001343BB610E4ABB69D360FB690133FB615D
:100E8000FB690F2B7FF6A2AE00BF2437BD4680BCA6
:100E9000704700BF003802400038014000000240A7
:100EA0000004024000080240000C02400010024012
:100EB000003C014080B483B000AF78600B467B807B
:100EC00013467B707B78002B03D07A887B689A610D
:100ED00003E07B881A047B689A6100BF0C37BD462B
:100EE00080BC704780B582B000AF0346FB80084BE2
:100EF0005A69FB881340002B06D0054AFB885361D2
:100F0000FB88184601F074FF00BF0837BD4680BD5E
:100F1000003C014080B586B000AF78607B68002B54
:100F200001D101232DE27B681B6803F00103002B34
:100F300075D0A34B9B6803F00C03042B0CD0A04B83
:100F40009B6803F00C03082B12D19D4B5B6803F4E4
:100F50008003B3F5800F0BD1994B1B6803F400336A
:100F6000002B5BD07B685B68002B57D1012308E224
:100F70007B685B68B3F5803F06D1914A904B1B6854
:100F800043F4803313601DE07B685B68B3F5A02FEA
:100F90000CD18B4A8A4B1B6843F480231360884A28
:100FA000874B1B6843F4803313600BE0844A844B07
:100FB0001B6823F480331360814A814B1B6823F440
:100FC000802313607B685B68002B13D0FFF75CFB0A
:100FD000386108E0FFF758FB02463B69D31A642BDF
:100FE00001D90323CDE1764B1B6803F40033002BBA
:100FF000F0D014E0FFF748FB386108E0FFF744FB4E
:1010000002463B69D31A642B01D90323B9E16C4B27
:101010001B6803F40033002BF0D100E000BF7B68B5
:101020001B6803F00203002B63D0654B9B6803F041
:101030000C03002B0BD0624B9B6803F00C03082BB6
:101040001CD15F4B5B6803F48003002B16D15C4B13
:101050001B6803F00203002B05D07B68DB68012BC3
:1010600001D001238DE15649554B1B6823F0F8024E
:101070007B681B69DB0013430B603AE07B68DB682D
:10108000002B20D04F4B01221A60FFF7FDFA386188
:1010900008E0FFF7F9FA02463B69D31A022B01D99F
:1010A00003236EE1464B1B6803F00203002BF0D0D4
:1010B0004349434B1B6823F0F8027B681B69DB0044
:1010C00013430B6015E03F4B00221A60FFF7DCFA78
:1010D000386108E0FFF7D8FA02463B69D31A022BC1
:1010E00001D903234DE1364B1B6803F00203002BAB
:1010F000F0D17B681B6803F00803002B30D07B68BD
:101100005B69002B16D0304B01221A60FFF7BCFA46
:10111000386108E0FFF7B8FA02463B69D31A022BA0
:1011200001D903232DE1264B5B6F03F00203002B53
:10113000F0D015E0244B00221A60FFF7A5FA3861C1
:1011400008E0FFF7A1FA02463B69D31A022B01D946
:10115000032316E11A4B5B6F03F00203002BF0D15F
:101160007B681B6803F00403002B00F0A0800023C1
:10117000FB75134B1B6C03F08053002B0FD1002326
:10118000FB600F4A0E4B1B6C43F0805313640C4BF7
:101190001B6C03F08053FB60FB680123FB750B4B5A
:1011A0001B6803F48073002B21D1084A074B1B688E
:1011B00043F480731360FFF767FA386111E000BFF2
:1011C0000038024000004742800E47420070004055
:1011D000FFF75AFA02463B69D31A022B01D90323BF
:1011E000CFE06A4B1B6803F48073002BF0D07B6860
:1011F0009B68012B06D1664A654B1B6F43F00103C8
:1012000013671CE07B689B68052B0CD1604A604B20
:101210001B6F43F0040313675D4A5D4B1B6F43F084
:10122000010313670BE05A4A594B1B6F23F001036C
:101230001367574A564B1B6F23F0040313677B68F1
:101240009B68002B15D0FFF71FFA38610AE0FFF703
:101250001BFA02463B69D31A41F28832934201D904
:1012600003238EE04A4B1B6F03F00203002BEED0EA
:1012700014E0FFF709FA38610AE0FFF705FA0246C1
:101280003B69D31A41F28832934201D9032378E0B3
:101290003F4B1B6F03F00203002BEED1FB7D012BB4
:1012A00005D13B4A3A4B1B6C23F0805313647B6897
:1012B0009B69002B64D0364B9B6803F00C03082B12
:1012C0005CD07B689B69022B41D1324B00221A60B3
:1012D000FFF7DAF9386108E0FFF7D6F902463B6913
:1012E000D31A022B01D903234BE0294B1B6803F0CF
:1012F0000073002BF0D126497B68DA697B681B6A92
:101300001A437B685B6A9B011A437B689B6A5B0894
:10131000013B1B041A437B68DB6A1B0613434B60CB
:101320001C4B01221A60FFF7AFF9386108E0FFF7A4
:10133000ABF902463B69D31A022B01D9032320E003
:10134000134B1B6803F00073002BF0D018E0114B17
:1013500000221A60FFF798F9386108E0FFF794F966
:1013600002463B69D31A022B01D9032309E0084B3B
:101370001B6803F00073002BF0D101E0012300E0B3
:10138000002318461837BD4680BD00BF00700040DE
:10139000003802406000474280B584B000AF7860FA
:1013A00039607B68002B01D10123CAE0674B1B68C1
:1013B00003F00F023B689A420CD2644B3A68D2B2F7
:1013C0001A70624B1B6803F00F023B689A4201D00F
:1013D0000123B6E07B681B6803F00203002B20D0DA
:1013E0007B681B6803F00403002B05D0584A584B58
:1013F0009B6843F4E05393607B681B6803F0080329
:10140000002B05D0524A524B9B6843F460439360D3
:101410004F494F4B9B6823F0F0027B689B68134356
:101420008B607B681B6803F00103002B44D07B6852
:101430005B68012B07D1464B1B6803F40033002B7C
:1014400019D101237DE07B685B68022B03D07B68A8
:101450005B68032B07D13E4B1B6803F00073002B26
:1014600009D101236DE03A4B1B6803F00203002B06
:1014700001D1012365E03649354B9B6823F0030217
:101480007B685B6813438B60FFF7FEF8F8600AE047
:10149000FFF7FAF80246FB68D31A41F2883293420A
:1014A00001D903234DE02A4B9B6803F00C027B68B3
:1014B0005B689B009A42EBD1244B1B6803F00F0240
:1014C0003B689A420CD9214B3A68D2B21A701F4B32
:1014D0001B6803F00F023B689A4201D0012330E001
:1014E0007B681B6803F00403002B08D01849184BD5
:1014F0009B6823F4E0527B68DB6813438B607B6856
:101500001B6803F00803002B09D01149104B9B689E
:1015100023F460427B681B69DB0013438B6000F09F
:101520001DF801460A4B9B681B0903F00F03094A8B
:10153000D35C21FA03F3084A13600020FFF762F836
:10154000002318461037BD4680BD00BF003C024056
:1015500000380240285800081C0000202DE9F04FF8
:101560008FB000AF0023FB6200237B630023BB62CC
:1015700000233B63624B9B6803F00C03042B07D0F2
:10158000082B08D0002B40F0B2805E4B3B63B1E0EB
:101590005D4B3B63AEE05A4B5B6803F03F03FB627D
:1015A000574B5B6803F48003002B4ED0544B5B68B1
:1015B0009B094FF0000440F2FF114FF0000201EAD6
:1015C000030102EA04020B46144660017862786A5D
:1015D00040EAD36078625B013B62D7E908345B1A6A
:1015E00064EB02044FEA841949EA93694FEA8318CD
:1015F000B8EB030869EB04094FEAC903FB61FB6917
:1016000043EA5873FB614FEAC803BB61D7E9068917
:1016100018EB010849EB02094FEA49237B617B691A
:1016200043EAD8537B614FEA48233B61D7E90489F9
:1016300040464946FB6A4FF000041A462346FEF72F
:10164000E5FD03460C467B6343E02D4B5B689B093D
:101650004FF0000440F2FF114FF0000201EA0301D5
:1016600002EA04020B4614466001F860F86840EA9A
:10167000D360F8605B01BB60D7E902345B1A64EBAE
:101680000204A60146EA93669D01ED1A66EB040684
:10169000F3007B607B6843EA55737B60EB003B6043
:1016A000D7E900566D1846EB02064FEA862B4BEA47
:1016B000955B4FEA852A55465E4628463146FB6AC9
:1016C0004FF000041A462346FEF7A0FD03460C46E1
:1016D0007B630B4B5B681B0C03F0030301335B0064
:1016E000BB627A6BBB6AB2FBF3F33B6302E0054B70
:1016F0003B6300BF3B6B18463C37BD46BDE8F08FEF
:10170000003802400024F40000127A0080B400AFD8
:10171000024B1B681846BD4680BC70471C00002069
:1017200080B500AFFFF7F2FF0146054B9B689B0AAF
:1017300003F00703034AD35C21FA03F3184680BD84
:10174000003802403858000880B500AFFFF7DEFFD0
:101750000146054B9B685B0B03F00703034AD35C10
:1017600021FA03F3184680BD0038024038580008BB
:1017700080B582B000AF78607B68002B01D1012377
:101780001DE07B6893F83D30DBB2002B06D17B680F
:10179000002283F83C20786802F0F6FE7B68022283
:1017A00083F83D207B681A687B680433194610462D
:1017B00000F0C0F87B68012283F83D200023184622
:1017C0000837BD4680BD80B584B000AF7860396011
:1017D0007B6893F83C30012B01D10223A6E07B68A3
:1017E000012283F83C207B68022283F83D207B683D
:1017F0001B689B68FB60FB6823F07703FB60FB685A
:1018000023F47F43FB607B681B68FA689A603B683F
:101810001B68402B67D0402B0BD8102B73D0102B9C
:1018200002D8002B6FD078E0202B6CD0302B6AD000
:1018300073E0702B0DD0702B04D8502B33D0602B5D
:1018400041D06AE0B3F5805F66D0B3F5005F17D092
:1018500063E07B6818683B6899683B685A683B6836
:10186000DB6800F05CF97B681B689B68FB60FB68C9
:1018700043F07703FB607B681B68FA689A604CE072
:101880007B6818683B6899683B685A683B68DB6806
:1018900000F045F97B681B687A681268926842F428
:1018A00080429A6039E07B6818683B6859683B68F9
:1018B000DB681A4600F0BCF87B681B6850211846AC
:1018C00000F013F929E07B6818683B6859683B68A9
:1018D000DB681A4600F0DAF87B681B68602118465E
:1018E00000F003F919E07B6818683B6859683B68A9
:1018F000DB681A4600F09CF87B681B68402118469C
:1019000000F0F3F809E07B681A683B681B68194629
:10191000104600F0EAF800E000BF7B68012283F87F
:101920003D207B68002283F83C20002318461037B6
:10193000BD4680BD80B485B000AF786039607B68FB
:101940001B68FB607B68334A93420FD07B68B3F11E
:10195000804F0BD07B68304A934207D07B682F4A78
:10196000934203D07B682E4A934208D1FB6823F050
:101970007003FB603B685B68FA681343FB607B683D
:10198000244A93421BD07B68B3F1804F17D07B6809
:10199000214A934213D07B68204A93420FD07B6840
:1019A0001F4A93420BD07B681E4A934207D07B6844
:1019B0001D4A934203D07B681C4A934208D1FB68BE
:1019C00023F44073FB603B68DB68FA681343FB60F9
:1019D000FB6823F080023B685B691343FB607B6814
:1019E000FA681A603B689A687B68DA623B681A6832
:1019F0007B689A627B68074A934203D13B681A6905
:101A00007B681A637B6801225A6100BF1437BD46A8
:101A100080BC704700000140000400400008004006
:101A2000000C0040004001400044014000480140DB
:101A300080B487B000AFF860B9607A60FB681B6A59
:101A40007B61FB681B6A23F00102FB681A62FB687A
:101A50009B693B613B6923F0F0033B617B681B01A1
:101A60003A6913433B617B6923F00A037B617A691E
:101A7000BB6813437B61FB683A699A61FB687A69CA
:101A80001A6200BF1C37BD4680BC704780B487B067
:101A900000AFF860B9607A60FB681B6A23F010023F
:101AA000FB681A62FB689B697B61FB681B6A3B6190
:101AB0007B6923F470437B617B681B037A69134362
:101AC0007B613B6923F0A0033B61BB681B013A6962
:101AD00013433B61FB687A699A61FB683A691A6251
:101AE00000BF1C37BD4680BC704780B485B000AFD6
:101AF000786039607B689B68FB60FB6823F070034B
:101B0000FB603A68FB68134343F00703FB607B68A4
:101B1000FA689A6000BF1437BD4680BC704780B435
:101B200087B000AFF860B9607A603B60FB689B6883
:101B30007B617B6923F47F437B613B681A027B688E
:101B40001A43BB6813437A6913437B61FB687A6964
:101B50009A6000BF1C37BD4680BC704780B487B018
:101B600000AFF860B9607A60BB6803F01F03012220
:101B700002FA03F37B61FB681A6A7B69DB431A4054
:101B8000FB681A62FB681A6ABB6803F01F03796876
:101B900001FA03F31A43FB681A6200BF1C37BD4603
:101BA00080BC704780B485B000AF786039607B68D6
:101BB00093F83C30012B01D1022332E07B680122F3
:101BC00083F83C207B68022283F83D207B681B68F9
:101BD0005B68FB607B681B689B68BB60FB6823F0ED
:101BE0007003FB603B681B68FA681343FB60BB68CB
:101BF00023F08003BB603B685B68BA681343BB603B
:101C00007B681B68FA685A607B681B68BA689A60D0
:101C10007B68012283F83D207B68002283F83C200A
:101C2000002318461437BD4680BC704780B582B08B
:101C300000AF78607B68002B01D101233FE07B6817
:101C400093F83930DBB2002B06D17B68002283F891
:101C50003820786802F0B8FC7B68242283F83920A9
:101C60007B681B687A681268D26822F40052DA60D6
:101C7000786800F00BF97B681B687A681268126953
:101C800022F490421A617B681B687A681268526974
:101C900022F02A025A617B681B687A681268D2684F
:101CA00042F40052DA607B680022DA637B6820220B
:101CB00083F839207B68202283F83A2000231846D5
:101CC0000837BD4680BD80B588B002AFF860B96006
:101CD0003B601346FB8000237B61FB6893F839303F
:101CE000DBB2202B40F08280BB68002B02D0FB8847
:101CF000002B01D101237AE0FB6893F83830012BE7
:101D000001D1022373E0FB68012283F83820FB68CD
:101D10000022DA63FB68212283F83920FEF7B4FC45
:101D20007861FB68FA889A84FB68FA88DA8441E073
:101D3000FB68DB8C9BB2013B9AB2FB68DA84FB68E0
:101D40009B68B3F5805F21D13B6800937B690022DB
:101D50008021F86800F04FF80346002B01D00323E0
:101D600045E0BB683B61FB681B683A691288C2F3B7
:101D700008025A60FB681B69002B03D1BB68023361
:101D8000BB6017E0BB680133BB6013E03B680093A6
:101D90007B6900228021F86800F02DF80346002BB3
:101DA00001D0032323E0FB681A68BB68591CB960A3
:101DB0001B785360FB68DB8C9BB2002BB8D13B686F
:101DC00000937B6900224021F86800F014F8034674
:101DD000002B01D003230AE0FB68202283F839207E
:101DE000FB68002283F83820002300E00223184615
:101DF0001837BD4680BD80B584B000AFF860B960CB
:101E00003B601346FB712CE0BB69B3F1FF3F28D068
:101E1000BB69002B07D0FEF737FC02463B68D21A9D
:101E2000BB699A421DD9FB681B68FA681268D268C0
:101E300022F4D072DA60FB681B68FA681268526993
:101E400022F001025A61FB68202283F83920FB68E6
:101E5000202283F83A20FB68002283F838200323ED
:101E60000FE0FB681B681A68BB681A40BB689A429F
:101E70000CBF01230023DBB21A46FB799A42C3D080
:101E8000002318461037BD4680BD0000F0B585B070
:101E900000AF78607B681B687A681268126922F468
:101EA00040517A68D2680A431A617B689A687B68F5
:101EB0001B691A437B685B691A437B68DB691343C0
:101EC000FB607B681A687B681B68DB6823F4164339
:101ED00023F00C03F9680B43D3607B681B687A68B6
:101EE0001268526922F440717A6892690A435A6111
:101EF0007B68DB69B3F5004F40F0E4807B681B68CA
:101F0000AB4A934204D07B681B68AA4A93426CD1C7
:101F10007B681C68FFF718FC024613469B001344BD
:101F20009A001A447B685B685B00B2FBF3F3A24A39
:101F3000A2FB03235B091D01FFF706FC02461346C3
:101F40009B0013449A001A447B685B685B00B2FBF9
:101F5000F3F6FFF7F9FB024613469B0013449A0081
:101F60001A447B685B685B00B2FBF3F3924AA2FB06
:101F700003235B09642202FB03F3F31ADB00323311
:101F80008D4AA2FB03235B095B0003F4F8731D4435
:101F9000FFF7DAFB024613469B0013449A001A44EB
:101FA0007B685B685B00B2FBF3F6FFF7CDFB024694
:101FB00013469B0013449A001A447B685B685B00DD
:101FC000B2FBF3F37C4AA2FB03235B09642202FB0E
:101FD00003F3F31ADB003233774AA2FB03235B09D6
:101FE00003F007032B44A36054E17B681C68FFF7F0
:101FF00097FB024613469B0013449A001A447B68E1
:102000005B685B00B2FBF3F36B4AA2FB03235B0943
:102010001D01FFF785FB024613469B0013449A00FF
:102020001A447B685B685B00B2FBF3F6FFF778FB52
:10203000024613469B0013449A001A447B685B686F
:102040005B00B2FBF3F35C4AA2FB03235B0964224F
:1020500002FB03F3F31ADB003233574AA2FB0323DC
:102060005B095B0003F4F8731D44FFF759FB02465C
:1020700013469B0013449A001A447B685B685B001C
:10208000B2FBF3F6FFF74CFB024613469B001344EA
:102090009A001A447B685B685B00B2FBF3F3464A24
:1020A000A2FB03235B09642202FB03F3F31ADB00A8
:1020B0003233414AA2FB03235B0903F007032B449D
:1020C000A360E7E07B681B68394A934204D07B68D1
:1020D0001B68384A934271D17B681C68FFF734FB58
:1020E000024613469B0013449A001A447B685B68BF
:1020F0009B00B2FBF3F3304AA2FB03235B091D01F3
:10210000FFF722FB024613469B0013449A001A4431
:102110007B685B689B00B2FBF3F6FFF715FB02469A
:1021200013469B0013449A001A447B685B689B002B
:10213000B2FBF3F3204AA2FB03235B09642202FBF8
:1021400003F3F31A1B0132331B4AA2FB03235B097F
:1021500003F0F0031D44FFF7F7FA024613469B0015
:1021600013449A001A447B685B689B00B2FBF3F649
:10217000FFF7EAFA024613469B0013449A001A44FA
:102180007B685B689B00B2FBF3F30B4AA2FB032363
:102190005B09642202FB03F3F31A1B013233064A84
:1021A000A2FB03235B0903F00F032B44A36071E040
:1021B00000100140001401401F85EB517B681C6832
:1021C000FFF7AEFA024613469B0013449A001A44E6
:1021D0007B685B689B00B2FBF3F3304AA2FB0323EE
:1021E0005B091D01FFF79CFA024613469B0013444E
:1021F0009A001A447B685B689B00B2FBF3F6FFF71A
:102200008FFA024613469B0013449A001A447B68D7
:102210005B689B00B2FBF3F3204AA2FB03235B093C
:10222000642202FB03F3F31A1B0132331B4AA2FBA5
:1022300003235B0903F0F0031D44FFF771FA024624
:1022400013469B0013449A001A447B685B689B000A
:10225000B2FBF3F6FFF764FA024613469B00134401
:102260009A001A447B685B689B00B2FBF3F30B4A4D
:10227000A2FB03235B09642202FB03F3F31A1B0195
:102280003233064AA2FB03235B0903F00F032B44FE
:10229000A360FFE700BF1437BD46F0BD1F85EB51BB
:1022A00080B582B000AF78607B68002B01D101233C
:1022B0001BE07B6893F82C30DBB2002B02D17868EE
:1022C00002F0CAF90B4A7B6813607B68022283F82C
:1022D0002C20786801F070FB7B68002283F82D20A9
:1022E0007B68012283F82C20002318460837BD465E
:1022F00080BD00BFA401002080B586B000AFF860AB
:10230000B9601346FB8000237B61FB6893F82C3097
:10231000DBB27B617B69012B02D07B69082B54D136
:10232000BB68002B02D0FB88002B01D101234DE0BC
:10233000FB68FA881A83FB68BA685A61FB68012255
:102340005A83FB68002283F82D20FB6893F82C3019
:10235000DBB2082B04D1FB68102283F82C2003E0A9
:10236000FB68042283F82C201A4B5B6A1A4ADA6352
:10237000184B5B6A194ADA64FB685B8B012B0ED140
:10238000BB681B78164A1946F86801F0E5FC012283
:1023900000211448FFF7E2FBF86801F093FDFB68A9
:1023A0005B8B012B0FD1FB685B8BFA889A420AD9B1
:1023B000FB685B8B1A46BB6813441B780A4A1946B4
:1023C000F86801F0C9FC002300E002231846183722
:1023D000BD4680BD64010020993F0008854000088B
:1023E00008020020000001403802002080B586B0BD
:1023F00000AFF860B9601346FB8000237B61FB6887
:1024000093F82C30DBB27B617B69012B02D07B69B6
:10241000042B32D1BB68002B02D0FB88002B01D1EA
:1024200001232BE0FB68BA68DA61FB68FA881A843A
:10243000FB6801225A84FB68002283F82D20FB6888
:1024400093F82C30DBB2042B04D1FB68102283F804
:102450002C2003E0FB68082283F82C20094B9B6AA0
:10246000094ADA63074B9B6A084ADA6401220421AD
:102470000748FFF773FB002300E0022318461837D4
:10248000BD4680BD64010020E53700088540000896
:102490000000014080B500AF8D4B1B685A8C0132A3
:1024A00092B25A848B498B4B1B68894A1268128AF4
:1024B00013430B60884B9B6A1B681A46874B9A42F2
:1024C0007ED9874B5A68844B9B6A1B681946854B9B
:1024D00099426DD0804B9B6A1B681946824B99428A
:1024E00064D07D4B9B6A1B681946804B99425BD038
:1024F000794B9B6A1B6819467D4B994252D0764BAB
:102500009B6A1B6819467B4B994248D0724B9B6A69
:102510001B681946784B99423ED06F4B9B6A1B68EB
:102520001946764B994234D06B4B9B6A1B6819460F
:10253000734B99422AD0684B9B6A1B681946714BB2
:10254000994220D0644B9B6A1B6819466E4B994296
:1025500016D0614B9B6A1B6819466C4B99420CD094
:102560005D4B9B6A1B681946694B994202D14FF437
:1025700000231EE04FF000731BE04FF4002318E02F
:102580004FF4002315E04FF4002312E04FF40073E2
:102590000FE04FF400730CE04FF4007309E04FF4C8
:1025A000007306E0082304E0082302E0082300E0AB
:1025B00008231340002B14BF01230023DBB2CEE11C
:1025C000454B9B6A1B681A46524B9A4240F2A480C4
:1025D000434B1A68404B9B6A1B681946414B994212
:1025E0006DD03D4B9B6A1B6819463F4B994264D0A6
:1025F000394B9B6A1B6819463C4B99425BD0364B62
:102600009B6A1B6819463A4B994252D0324B9B6ADF
:102610001B681946374B994248D02F4B9B6A1B6861
:102620001946354B99423ED02B4B9B6A1B68194685
:10263000324B994234D0284B9B6A1B681946304B69
:1026400099422AD0244B9B6A1B6819462D4B99420C
:1026500020D0214B9B6A1B6819462B4B994216D000
:102660001D4B9B6A1B681946284B99420CD01A4B8C
:102670009B6A1B681946264B994202D14FF40023EE
:102680001EE04FF000731BE04FF4002318E04FF4FE
:10269000002315E04FF4002312E04FF400730FE025
:1026A0004FF400730CE04FF4007309E04FF4007333
:1026B00006E0082304E0082302E0082300E00823E2
:1026C0001340002B14BF01230023DBB247E100BFFE
:1026D000A4010020003C0140640100205864024035
:1026E00000640240106002401064024070600240CA
:1026F0007064024028600240286402408860024002
:10270000886402404060024040640240A060024091
:10271000A0640240B86002407E4B9B6A1B681A4668
:102720007D4B9A427ED97D4B5A687A4B9B6A1B68D7
:1027300019467B4B99426DD0764B9B6A1B681946B4
:10274000784B994264D0734B9B6A1B681946764B51
:1027500099425BD06F4B9B6A1B681946734B994239
:1027600052D06C4B9B6A1B681946714B994248D0FA
:10277000684B9B6A1B6819466E4B99423ED0654B6D
:102780009B6A1B6819466C4B994234D0614B9B6A1B
:102790001B681946694B99422AD05E4B9B6A1B689D
:1027A0001946674B994220D05A4B9B6A1B681946C1
:1027B000644B994216D0574B9B6A1B681946624B73
:1027C00099420CD0534B9B6A1B6819465F4B994248
:1027D00002D14FF400231EE04FF000731BE04FF4D2
:1027E000002318E04FF4002315E04FF4002312E01B
:1027F0004FF400730FE04FF400730CE04FF40073DC
:1028000009E04FF4007306E0082304E0082302E027
:10281000082300E008231340002B14BF01230023EA
:10282000DBB29CE03D4B1A683A4B9B6A1B68194629
:102830003B4B994200F08C80364B9B6A1B681946D3
:10284000384B994264D0334B9B6A1B681946364B10
:1028500099425BD02F4B9B6A1B681946334B9942B8
:1028600052D02C4B9B6A1B681946314B994248D079
:10287000284B9B6A1B6819462E4B99423ED0254B2C
:102880009B6A1B6819462C4B994234D0214B9B6A9A
:102890001B681946294B99422AD01E4B9B6A1B681C
:1028A0001946274B994220D01A4B9B6A1B68194640
:1028B000244B994216D0174B9B6A1B681946224B32
:1028C00099420CD0134B9B6A1B6819461F4B9942C7
:1028D00002D14FF400233CE04FF0007339E04FF495
:1028E000002336E04FF4002333E04FF4002330E0C0
:1028F0004FF400732DE04FF400732AE04FF400739F
:1029000027E04FF4007324E0082322E0082320E0AE
:1029100008231EE06401002058600240006002406D
:102920001060024010640240706002407064024017
:1029300028600240286402408860024088640240A7
:102940004060024040640240A0600240A064024037
:1029500008231340002B14BF01230023DBB2002BFC
:1029600002D0824801F08EFB814B9B6A1B681A469D
:10297000804B9A4278D9804A7D4B9B6A1B681946E6
:102980007E4B99426DD07A4B9B6A1B6819467C4BF3
:10299000994264D0764B9B6A1B681946794B9942E1
:1029A0005BD0734B9B6A1B681946774B994252D098
:1029B0006F4B9B6A1B681946744B994248D06C4B0D
:1029C0009B6A1B681946724B99423ED0684B9B6AC2
:1029D0001B6819466F4B994234D0654B9B6A1B6844
:1029E00019466D4B99422AD0614B9B6A1B68194668
:1029F0006A4B994220D05E4B9B6A1B681946684B14
:102A0000994216D05A4B9B6A1B681946654B9942EE
:102A10000CD0574B9B6A1B681946634B994202D1F5
:102A20004FF400131EE04FF000631BE04FF400135F
:102A300018E04FF4001315E04FF4001312E04FF4C8
:102A400000630FE04FF400630CE04FF4006309E013
:102A50004FF4006306E0202304E0202302E020235B
:102A600000E02023D3609BE1414B9B6A1B681A4620
:102A70004E4B9A4240F29C803F4A3D4B9B6A1B68FA
:102A800019463E4B99426DD0394B9B6A1B681946DB
:102A90003B4B994264D0364B9B6A1B681946394BB5
:102AA00099425BD0324B9B6A1B681946364B994260
:102AB00052D02F4B9B6A1B681946344B994248D021
:102AC0002B4B9B6A1B681946314B99423ED0284BD1
:102AD0009B6A1B6819462F4B994234D0244B9B6A42
:102AE0001B6819462C4B99422AD0214B9B6A1B68C4
:102AF00019462A4B994220D01D4B9B6A1B681946E8
:102B0000274B994216D01A4B9B6A1B681946254BD6
:102B100099420CD0164B9B6A1B681946224B99426E
:102B200002D14FF400131EE04FF000631BE04FF49E
:102B3000001318E04FF4001315E04FF4001312E0F7
:102B40004FF400630FE04FF400630CE04FF40063B8
:102B500009E04FF4006306E0202304E0202302E0B4
:102B6000202300E0202393601AE100BF040100202D
:102B7000640100205864024000640240106002407A
:102B8000106402407060024070640240286002409D
:102B9000286402408860024088640240406002402D
:102BA00040640240A0600240A0640240B86002405D
:102BB000804B9B6A1B681A467F4B9A4278D97F4AA2
:102BC0007C4B9B6A1B6819467D4B99426DD0794BB3
:102BD0009B6A1B6819467B4B994264D0754B9B6A74
:102BE0001B681946784B99425BD0724B9B6A1B68F5
:102BF0001946764B994252D06E4B9B6A1B68194618
:102C0000734B994248D06B4B9B6A1B681946714BBA
:102C100099423ED0674B9B6A1B6819466E4B99429E
:102C200034D0644B9B6A1B6819466C4B99422AD07E
:102C3000604B9B6A1B681946694B994220D05D4BDB
:102C40009B6A1B681946674B994216D0594B9B6A81
:102C50001B681946644B99420CD0564B9B6A1B6803
:102C60001946624B994202D14FF400131EE04FF017
:102C700000631BE04FF4001318E04FF4001315E05D
:102C80004FF4001312E04FF400630FE04FF40063C1
:102C90000CE04FF4006309E04FF4006306E02023EA
:102CA00004E0202302E0202300E02023D36077E02B
:102CB000424A404B9B6A1B681946414B99426DD072
:102CC0003C4B9B6A1B6819463E4B994264D0394B7A
:102CD0009B6A1B6819463C4B99425BD0354B9B6AFB
:102CE0001B681946394B994252D0324B9B6A1B687C
:102CF0001946374B994248D02E4B9B6A1B681946A0
:102D0000344B99423ED02B4B9B6A1B681946324B81
:102D1000994234D0274B9B6A1B6819462F4B994226
:102D20002AD0244B9B6A1B6819462D4B994220D010
:102D3000204B9B6A1B6819462A4B994216D01D4BA3
:102D40009B6A1B681946284B99420CD0194B9B6A09
:102D50001B681946254B994202D14FF400131EE01F
:102D60004FF000631BE04FF4001318E04FF4001322
:102D700015E04FF4001312E04FF400630FE04FF43E
:102D800000630CE04FF4006309E04FF4006306E0D9
:102D9000202304E0202302E0202300E0202393608E
:102DA000044B9B6ADB6B034A926A1046984700BF4C
:102DB00080BD00BF640100205860024000600240F6
:102DC0001060024010640240706002407064024073
:102DD0002860024028640240886002408864024003
:102DE0004060024040640240A0600240A064024093
:102DF00090B587B000AF0346FB8000237B610023C2
:102E00003B610023FB601E491D4B1B681D4A126875
:102E1000128AD24313400B601A4B1B685B8C03F081
:102E200001039BB2002B04D0174B7B61174B3B6116
:102E300003E0164B7B61144B3B61124B1B687A69B4
:102E40001146184600F03CFD0E4B1B685B8C012BB5
:102E500011D90C4B1B68DA690A4B1B685B8C023B6F
:102E6000D418084B1B683969FA68D2B2184600F0CA
:102E7000ABFE0346237000BF1C37BD4690BD00BFAC
:102E8000003C0140A4010020A8010020D80100203E
:102E900080B500AF864B5B6A1B681A46854B9A4229
:102EA0007ED9854B5A68824B5B6A1B681946834BF7
:102EB00099426DD07E4B5B6A1B681946804B9942E4
:102EC00064D07B4B5B6A1B6819467E4B99425BD092
:102ED000774B5B6A1B6819467B4B994252D0744B07
:102EE0005B6A1B681946794B994248D0704B5B6A04
:102EF0001B681946764B99423ED06D4B5B6A1B6846
:102F00001946744B994234D0694B5B6A1B68194669
:102F1000714B99422AD0664B5B6A1B6819466F4B0E
:102F2000994220D0624B5B6A1B6819466C4B9942F0
:102F300016D05F4B5B6A1B6819466A4B99420CD0EE
:102F40005B4B5B6A1B681946674B994202D14FF491
:102F500000231EE04FF000731BE04FF4002318E045
:102F60004FF4002315E04FF4002312E04FF40073F8
:102F70000FE04FF400730CE04FF4007309E04FF4DE
:102F8000007306E0082304E0082302E0082300E0C1
:102F900008231340002B14BF01230023DBB2CAE136
:102FA000434B5B6A1B681A46504B9A4240F2A08022
:102FB000414B1A683E4B5B6A1B6819463F4B99426E
:102FC0006DD03B4B5B6A1B6819463D4B994264D000
:102FD000374B5B6A1B6819463A4B99425BD0344BBE
:102FE0005B6A1B681946384B994252D0304B5B6A7A
:102FF0001B681946354B994248D02D4B5B6A1B68BC
:103000001946334B99423ED0294B5B6A1B681946DF
:10301000304B994234D0264B5B6A1B6819462E4BC5
:1030200099422AD0224B5B6A1B6819462B4B994266
:1030300020D01F4B5B6A1B681946294B994216D05A
:103040001B4B5B6A1B681946264B99420CD0184BE8
:103050005B6A1B681946244B994202D14FF4002346
:103060001EE04FF000731BE04FF4002318E04FF414
:10307000002315E04FF4002312E04FF400730FE03B
:103080004FF400730CE04FF4007309E04FF4007349
:1030900006E0082304E0082302E0082300E00823F8
:1030A0001340002B14BF01230023DBB243E100BF18
:1030B0006401002058640240006402401060024035
:1030C0001064024070600240706402402860024058
:1030D00028640240886002408864024040600240E8
:1030E00040640240A0600240A0640240B860024018
:1030F0007E4B5B6A1B681A467D4B9A427ED97D4B9C
:103100005A687A4B5B6A1B6819467B4B99426DD0B3
:10311000764B5B6A1B681946784B994264D0734BB7
:103120005B6A1B681946764B99425BD06F4B5B6AB2
:103130001B681946734B994252D06C4B5B6A1B68F3
:103140001946714B994248D0684B5B6A1B68194617
:103150006E4B99423ED0654B5B6A1B6819466C4BBF
:10316000994234D0614B5B6A1B681946694B99429E
:103170002AD05E4B5B6A1B681946674B994220D088
:103180005A4B5B6A1B681946644B994216D0574BE1
:103190005B6A1B681946624B99420CD0534B5B6AC1
:1031A0001B6819465F4B994202D14FF400231EE081
:1031B0004FF000731BE04FF4002318E04FF400239E
:1031C00015E04FF4002312E04FF400730FE04FF4CA
:1031D00000730CE04FF4007309E04FF4007306E055
:1031E000082304E0082302E0082300E0082313403A
:1031F000002B14BF01230023DBB29CE03D4B1A6877
:103200003A4B5B6A1B6819463B4B994200F08C8035
:10321000364B5B6A1B681946384B994264D0334B76
:103220005B6A1B681946364B99425BD02F4B5B6A31
:103230001B681946334B994252D02C4B5B6A1B6872
:103240001946314B994248D0284B5B6A1B68194696
:103250002E4B99423ED0254B5B6A1B6819462C4B7E
:10326000994234D0214B5B6A1B681946294B99421D
:103270002AD01E4B5B6A1B681946274B994220D007
:103280001A4B5B6A1B681946244B994216D0174BA0
:103290005B6A1B681946224B99420CD0134B5B6A40
:1032A0001B6819461F4B994202D14FF400233CE0A2
:1032B0004FF0007339E04FF4002336E04FF4002361
:1032C00033E04FF4002330E04FF400732DE04FF46F
:1032D00000732AE04FF4007327E04FF4007324E0FA
:1032E000082322E0082320E008231EE064010020D8
:1032F00058600240006002401060024010640240CA
:1033000070600240706402402860024028640240FD
:10331000886002408864024040600240406402408D
:10332000A0600240A064024008231340002B14BF99
:1033300001230023DBB2002B02D0824800F0A2FE62
:10334000814B5B6A1B681A46804B9A4278D9804A47
:103350007D4B5B6A1B6819467E4B99426DD07A4B58
:103360005B6A1B6819467C4B994264D0764B5B6A5A
:103370001B681946794B99425BD0734B5B6A1B689B
:103380001946774B994252D06F4B5B6A1B681946BE
:10339000744B994248D06C4B5B6A1B681946724B60
:1033A00099423ED0684B5B6A1B6819466F4B994245
:1033B00034D0654B5B6A1B6819466D4B99422AD025
:1033C000614B5B6A1B6819466A4B994220D05E4B81
:1033D0005B6A1B681946684B994216D05A4B5B6A68
:1033E0001B681946654B99420CD0574B5B6A1B68AA
:1033F0001946634B994202D14FF400131EE04FF07F
:1034000000631BE04FF4001318E04FF4001315E0C5
:103410004FF4001312E04FF400630FE04FF4006329
:103420000CE04FF4006309E04FF4006306E0202352
:1034300004E0202302E0202300E02023D3609BE16E
:10344000414B5B6A1B681A464E4B9A4240F29C8085
:103450003F4A3D4B5B6A1B6819463E4B99426DD013
:10346000394B5B6A1B6819463B4B994264D0364B1B
:103470005B6A1B681946394B99425BD0324B5B6AD9
:103480001B681946364B994252D02F4B5B6A1B681A
:103490001946344B994248D02B4B5B6A1B6819463E
:1034A000314B99423ED0284B5B6A1B6819462F4B23
:1034B000994234D0244B5B6A1B6819462C4B9942C5
:1034C0002AD0214B5B6A1B6819462A4B994220D0AF
:1034D0001D4B5B6A1B681946274B994216D01A4B45
:1034E0005B6A1B681946254B99420CD0164B5B6AE8
:1034F0001B681946224B994202D14FF400131EE07B
:103500004FF000631BE04FF4001318E04FF400137A
:1035100015E04FF4001312E04FF400630FE04FF496
:1035200000630CE04FF4006309E04FF4006306E031
:10353000202304E0202302E0202300E020239360E6
:103540001AE100BFA400002064010020586402407A
:10355000006402401060024010640240706002404B
:103560007064024028600240286402408860024083
:10357000886402404060024040640240A060024013
:10358000A0640240B8600240804B5B6A1B681A4628
:103590007F4B9A4278D97F4A7C4B5B6A1B681946FD
:1035A0007D4B99426DD0794B5B6A1B6819467B4B0A
:1035B000994264D0754B5B6A1B681946784B9942F7
:1035C0005BD0724B5B6A1B681946764B994252D0AE
:1035D0006E4B5B6A1B681946734B994248D06B4B24
:1035E0005B6A1B681946714B99423ED0674B5B6A18
:1035F0001B6819466E4B994234D0644B5B6A1B685A
:1036000019466C4B99422AD0604B5B6A1B6819467D
:10361000694B994220D05D4B5B6A1B681946674B2A
:10362000994216D0594B5B6A1B681946644B994204
:103630000CD0564B5B6A1B681946624B994202D10B
:103640004FF400131EE04FF000631BE04FF4001333
:1036500018E04FF4001315E04FF4001312E04FF49C
:1036600000630FE04FF400630CE04FF4006309E0E7
:103670004FF4006306E0202304E0202302E020232F
:1036800000E02023D36077E0424A404B5B6A1B682E
:103690001946414B99426DD03C4B5B6A1B681946F9
:1036A0003E4B994264D0394B5B6A1B6819463C4BD0
:1036B00099425BD0354B5B6A1B681946394B99427E
:1036C00052D0324B5B6A1B681946374B994248D03F
:1036D0002E4B5B6A1B681946344B99423ED02B4BEC
:1036E0005B6A1B681946324B994234D0274B5B6AA0
:1036F0001B6819462F4B99422AD0244B5B6A1B68E2
:1037000019462D4B994220D0204B5B6A1B68194605
:103710002A4B994216D01D4B5B6A1B681946284BF1
:1037200099420CD0194B5B6A1B681946254B99428C
:1037300002D14FF400131EE04FF000631BE04FF482
:10374000001318E04FF4001315E04FF4001312E0DB
:103750004FF400630FE04FF400630CE04FF400639C
:1037600009E04FF4006306E0202304E0202302E098
:10377000202300E020239360044B5B6ADB6B034A49
:10378000526A1046984700BF80BD00BF6401002008
:103790005860024000600240106002401064024025
:1037A0007060024070640240286002402864024059
:1037B00088600240886402404060024040640240E9
:1037C000A0600240A064024080B483B000AF786083
:1037D0007B68012283F82C2000BF0C37BD4680BCDB
:1037E0007047000090B585B000AF78600023FB60A3
:1037F0000023BB602E4B1B685A8C2D4B1B681B8C07
:103800009A4251D92B492B4B1B68294A1268128ABC
:10381000D24313400B60264B1B685B8C03F0010303
:103820009BB2002B02D1244BFB6001E0234BFB60D9
:103830001F4B1B68DA691E4B1B685B8C023BD4185C
:103840001B4B1B68F968BA68D2B2184600F0BCF985
:1038500003462370164B1B68154A12681278D2B2C1
:1038600042F00102D2B21A70114B1B6800225A8436
:103870000F4B1B68002283F82D200D4B1B6893F81B
:103880002C30DBB2102B05D1094B1B68042283F8C6
:103890002C2004E0064B1B68012283F82C20044BEB
:1038A0001B68184600F038FC00BF1437BD4690BDB9
:1038B000A4010020003C0140A8010020D801002004
:1038C00080B487B000AF7860396000237B6100234B
:1038D0003B610023FB600023BB60334BDB6ABB60B2
:1038E0003B683B617B685B6A10337B617B681B7B59
:1038F0009AB27B685B7B9BB213449BB201339BB251
:10390000FB602A4B1B68294A1268126842F01002B9
:103910001A60264B1B68254A1268126842F004029E
:103920001A60224B1B68FA685A60204B1B687A6940
:103930009A601E4B1B683A69DA601C4B1B681B4A75
:103940001268126842F001021A60194B1B685B8C06
:10395000012B05D07B6893F82C30DBB2102B0DD0F7
:103960001148114B5A6ABB685B081344BA68B3FB31
:10397000F2F2B96801FB02F29B1A83630D4B1B68DC
:103980000C4A1268D26842F48062DA60094B1B6804
:10399000084A1268126842F001021A6000BF1C3720
:1039A000BD4680BC704700BF0000014004010020FC
:1039B000A401002064010020B0B584B000AF78609D
:1039C0000023FB60FDF7CAFD0446FDF7BDFE03467C
:1039D000B4FBF3F3012B0CBF01230023DCB2FDF792
:1039E000BDFD0546FDF7B0FE0346B5FBF3F3022B24
:1039F0000CBF01230023DBB22343DBB2002B09D031
:103A0000FDF7ACFD02467B689B68B2FBF3F3013B1C
:103A1000FB6009E0FDF798FE03465A007B689B684F
:103A2000B2FBF3F3013BFB60134B144A1A60124ADA
:103A3000FB68D360104B00225A600F4B00221A61C2
:103A40000D4B00229A600C48FDF792FE7B681B79B3
:103A5000022B02D100F014F80AE07B681B79012BDD
:103A600002D100F067F803E000F00AF800F062F815
:103A700000BF1037BD46B0BD64010020000001400A
:103A800080B500AF274B1B68986A264B1B685B8A82
:103A900001221946FDF70EFA234B4FF040625A609F
:103AA000214B40229A60204B0022DA601E4B4FF4DB
:103AB00080621A611C4B4FF480525A611A4B4FF4CA
:103AC00080429A61184B0022DA61174B4FF4403262
:103AD0001A62154B00225A62134B03229A62124B50
:103AE0000022DA62104B00221A630F4B0F4A1A6051
:103AF0000F4B5B6A0C4A93630D4B0B4A5A620A4B9D
:103B00000B4A9A630A4B5B6A1846FCF7F5FE0322E0
:103B100003213920FCF7B9FE3920FCF7D2FE00BFA3
:103B200080BD00BFA4010020A40000202864024042
:103B30006401002080B500AF204B4FF040625A6016
:103B40001E4B00229A601D4B0022DA601B4B4FF483
:103B500080621A61194B4FF480525A61174B4FF42F
:103B600080429A61154B0022DA61144B4FF44032C7
:103B70001A62124B00225A62104B03229A620F4BB8
:103B80000022DA620D4B00221A630C4B0C4A1A60B9
:103B90000C4B0A4A9A62094B0A4A9A63094B9B6A80
:103BA0001846FCF7A9FE012200213A20FCF76DFE21
:103BB0003A20FCF786FE00BF80BD00BF0401002054
:103BC000406402406401002080B588B000AFF86016
:103BD000B9601346FB710023FB610023BB61002326
:103BE0007B6100233B61FB689B7B002B04D0FB685F
:103BF0001B7B013BBB6102E0FB681B7BBB61FB687D
:103C00001B7B01339B00BA6813441B68FA68128A55
:103C10001340FA68128A93421FD04D4B1B684C4ADE
:103C200012681278D2B242F00402D2B21A70FB6863
:103C300093F82D30DBB243F00103DAB2FB6883F86E
:103C40002D20444A434B1B6823F008031360F86897
:103C500000F03EFA00237B6173E00023FB611CE06F
:103C6000FB6901339B00BA6813441B68FA68128A27
:103C70001340FA68128A93420CD10122FB6902FABE
:103C800003F35AB297F9073013435BB2FB713B69F8
:103C900001333B61FB690133FB61FA69BB699A42FD
:103CA000DED3FB689B7B022B1CD13B6903F0010335
:103CB000002B17D1BB6901339B00BA6813441B6802
:103CC000FA68128A1340FA68128A93420AD0FB6893
:103CD0001B78DBB243F00803DAB2FB681A70F868AD
:103CE00000F0F6F9FB689B7B012B26D13B6903F0C2
:103CF0000103002B21D0BB6901339B00BA68134438
:103D00001B68FA68128A1340FA68128A934214D028
:103D1000FB681B78DBB243F00803DAB2FB681A7069
:103D2000FB6893F82D30DBB243F00403DAB2FB6892
:103D300083F82D20F86800F0CBF900233B61FB7974
:103D40007B617B69DBB218462037BD4680BD00BF72
:103D5000A4010020003C014080B489B000AFF860AD
:103D60000B467A60FB720023FB6100237B6100231A
:103D70003B610023BB61FB681B7B3B61FB685B8A8B
:103D80007B61FB689B7B002B22D10023FB611AE047
:103D9000FA7AFB6942FA03F303F00103002B07D020
:103DA000FB6901339B007A6813447A691A6007E063
:103DB000FB6901339B007A6813447A6912041A6024
:103DC000FB690133FB61FA693B699A42E0D325E064
:103DD0000023FB611DE0FA7AFB6942FA03F303F06A
:103DE0000103002B0AD0FB6901339B007A6813445E
:103DF0007A691A60BB690133BB6107E0FB69013373
:103E00009B007A6813447A6912041A60FB690133D3
:103E1000FB613B695A1EFB699A42DCD8FB689B7BBD
:103E2000012B16D0022B00D027E0BB6903F0010361
:103E3000002B06D13B699B007A6813447A691A60AB
:103E40001BE03B699B007A6813447A6912041A608C
:103E500013E0BB6903F00103002B07D13B699B0012
:103E60007A6813447A6912041A6005E03B699B0082
:103E70007A6813447A691A6000BF7B691A047B6808
:103E80001A60FB685B7B012B07D13B6901339B0008
:103E90007A6813447A691A600DE03B6901339B002C
:103EA0007A6813447A691A603B6902339B007A6826
:103EB00013447A691A600023BB6100BF2437BD46F2
:103EC00080BC704780B487B000AF786000237B610E
:103ED00000233B610023FB602A4B1B685B8B03F0D4
:103EE00001039BB2002B02D0274B7B6101E0274BE3
:103EF0007B617B689B6A18333B617B681B7B9AB252
:103F00007B685B7B9BB213449BB201339BB2FB602B
:103F10001F4B1B68FA685A601D4B1B683A699A6010
:103F20001B4B1B687A69DA60194B1B68184A1268C8
:103F3000126842F010021A60154B1B68144A12688E
:103F4000126842F004021A60114B1B68104A126892
:103F5000126842F001021A600E4B1B680D4A12688B
:103F6000D26842F40072DA600A4B1B68094A126890
:103F7000126842F001021A6000BF1C37BD4680BCC7
:103F8000704700BFA4010020080200203802002072
:103F9000A40000206401002080B584B000AF7860E8
:103FA0000023FB60334B1B685A8B013292B25A8359
:103FB000304B1B685A8B2F4B1B681B8B9A4220D8A7
:103FC0002C4B1B681846FFF77DFF2A4B1B685B8B49
:103FD00003F001039BB2002B02D0274BFB6001E0F2
:103FE000264BFB60234B1868224B1B685B69214AF8
:103FF0001268528B13441B78FA681946FFF7ACFE1F
:1040000033E01F4B5B6A1B681D4A526A12681268D4
:1040100022F010021A60174B1B68164A12681278B9
:10402000D2B242F00202D2B21A70124B1B680022C6
:104030005A83104B1B68002283F82D200D4B1B6800
:1040400093F82C30DBB2102B05D10A4B1B680822E9
:1040500083F82C2004E0074B1B68012283F82C20F6
:10406000044B1B68184600F065F800BF1037BD46CA
:1040700080BD00BFA40100203802002008020020FB
:104080006401002080B582B000AF78600F4B1B68E0
:104090000E4A12681278D2B242F00402D2B21A70FA
:1040A0000A4B1B68094A126892F82D20D2B242F0DE
:1040B0000102D2B283F82D20044B1B68184600F091
:1040C00007F800BF0837BD4680BD00BFA40100202F
:1040D00080B582B000AF7860034800F06BFC00BF91
:1040E0000837BD4680BD00BFB857000880B584B012
:1040F00000AFF860B9607A607B689AB24FF47A7367
:10410000B9680448FDF7DFFD7B6818461037BD46E7
:1041100080BD00BFA802002080B582B000AF7860EB
:10412000034800F047FC00BF0837BD4680BD00BF14
:10413000D857000880B582B000AF7860034800F01F
:1041400039FC00BF0837BD4680BD00BFE8570008F6
:1041500080B500AFFCF734FA00F05EF800F042F9E9
:1041600000F016F900F0C4F8264800F075FA254B67
:1041700003221A71234B4FF416529A60214B0122ED
:104180005A73204B00229A731E4B08221A731D4843
:10419000FEF786F80346002B01D000F0C3F91A4859
:1041A00000F008FC112219491648FEF71FF90346D2
:1041B000002B01D000F0B6F9112215491148FEF785
:1041C0009BF80346002B01D000F0ACF900BF0D4B6B
:1041D0001B78DBB203F00203022BF8D100BF094BBE
:1041E0001B78DBB203F00103012BF8D10749094822
:1041F00000F0E0FB0348FFF7E7FA4FF47A70FCF7B2
:104200004DFACFE7E8020020F85700081803002015
:10421000080000200458000880B594B000AF07F1F2
:10422000200330220021184600F0BCFB07F10C03EC
:1042300000221A605A609A60DA601A610023BB603B
:10424000294A294B1B6C43F080531364264B1B6C8B
:1042500003F08053BB60BB6800237B60234A234B81
:104260001B6823F4404343F4004313601F4B1B6857
:1042700003F440437B607B6802233B620123FB62C3
:1042800010233B630223BB630023FB6310233B64C7
:104290004FF4A8737B640423BB640723FB6407F11A
:1042A00020031846FCF736FE0346002B01D000F031
:1042B00039F90F23FB6002233B6100237B614FF43C
:1042C0008053BB610023FB6107F10C0302211846F8
:1042D000FDF762F80346002B01D000F023F900BF80
:1042E0005037BD4680BD00BF00380240007000401E
:1042F00080B586B000AF07F1080300221A605A604B
:104300009A60DA603B4600221A605A601E4B1F4AD0
:104310001A601D4B00225A601B4B00229A601A4BF8
:104320000022DA60184B00221A61174B00225A61F2
:10433000154B00229A611448FDF71AFA0346002B28
:1043400001D000F0EFF84FF48053BB6007F1080391
:1043500019460D48FDF737FA0346002B01D000F04F
:10436000E1F800233B6000237B603B46194606488A
:10437000FDF718FC0346002B01D000F0D3F800BF76
:104380001837BD4680BD00BF680200200000014014
:1043900080B500AF114B124A1A60104B4FF4165201
:1043A0005A600E4B00229A600C4B0022DA600B4BD5
:1043B00000221A61094B0C225A61084B00229A61B3
:1043C000064B0022DA610548FDF730FC0346002B5E
:1043D00001D000F0A7F800BF80BD00BFA8020020F8
:1043E0000044004080B58AB000AF07F114030022FA
:1043F0001A605A609A60DA601A6100233B61444A8D
:10440000434B1B6B43F004031363414B1B6B03F0E3
:1044100004033B613B690023FB603D4A3C4B1B6B43
:1044200043F0800313633A4B1B6B03F08003FB6084
:10443000FB680023BB60364A354B1B6B43F001031E
:104440001363334B1B6B03F00103BB60BB6800239A
:104450007B602F4A2E4B1B6B43F0020313632C4BE4
:104460001B6B03F002037B607B680022202129483C
:10447000FCF720FD00224FF480612748FCF71AFD6D
:104480004FF400537B61254BBB610023FB6107F1B7
:10449000140319462048FCF78BFB20237B61012382
:1044A000BB610023FB6100233B6207F11403194643
:1044B0001848FCF77DFB80237B61194BBB6100230F
:1044C000FB6107F1140319461348FCF771FB4FF425
:1044D00000737B610023BB610023FB6107F11403C0
:1044E00019460D48FCF764FB4FF480637B610123A0
:1044F000BB610023FB6100233B6207F114031946F3
:104500000548FCF755FB00BF2837BD4680BD00BFFE
:104510000038024000000240000802400000211064
:104520000000111080B500AF024800F043FA00BF50
:1045300080BD00BF1058000880B582B000AF0023D6
:104540007B60104A0F4B5B6C43F4804353640D4B0C
:104550005B6C03F480437B607B6800233B60094A0B
:10456000084B1B6C43F080531364064B1B6C03F029
:1045700080533B603B680720FCF77CF900BF08379D
:10458000BD4680BD0038024080B485B000AF786081
:104590007B681B680A4A93420DD10023FB60094ADD
:1045A000084B5B6C43F001035364064B5B6C03F0F8
:1045B0000103FB60FB6800BF1437BD4680BC704739
:1045C000000001400038024080B58AB000AF78603A
:1045D00007F1140300221A605A609A60DA601A61C7
:1045E0007B681B68194A93422BD100233B61184A10
:1045F000174B1B6C43F400331364154B1B6C03F413
:1046000000333B613B690023FB60114A104B1B6B7D
:1046100043F0010313630E4B1B6B03F00103FB60BC
:10462000FB680C237B610223BB610023FB61002339
:104630003B6207237B6207F1140319460548FCF728
:10464000B7FA00BF2837BD4680BD00BF0044004018
:10465000003802400000024080B58CB000AF7860A6
:104660000023BB61344A344B5B6C43F00103536459
:10467000314B5B6C03F00103BB61BB6900237B61C1
:104680002D4A2D4B1B6B43F4800313632A4B1B6B8A
:1046900003F480037B617B6900233B61264A264B40
:1046A0001B6B43F004031363234B1B6B03F00403E6
:1046B0003B613B690023FB601F4A1F4B1B6B43F0B0
:1046C000040313631C4B1B6B03F00403FB60FB68C8
:1046D0001A4B1B4A9A62194B194A5A62174B4FF4EC
:1046E00000621A82154B4FF480625A824FF4806345
:1046F000FB6101233B6200237B620323BB6207F162
:104700001C0319460E48FCF753FA0E4B3B624FF45C
:104710000063FB6107F11C0319460948FCF748FADE
:10472000002200212820FCF7B0F82820FCF7C9F867
:1047300000BF3037BD4680BD00380240E80200208F
:10474000000802400000211080B400AF00BFBD4649
:1047500080BC704780B400AFFEE780B400AFFEE7D6
:1047600080B400AFFEE780B400AFFEE780B400AFD6
:1047700000BFBD4680BC704780B400AF00BFBD46DF
:1047800080BC704780B400AF00BFBD4680BC70479E
:1047900080B500AFFBF766FF00BF80BD80B500AFFE
:1047A0004FF40060FCF79EFB00BF80BD90B587B062
:1047B00000AFF860B9607A6000237B610AE0BC68F2
:1047C000631CBB60AFF300800346DBB223707B69E0
:1047D00001337B617A697B689A42F0DB7B6818461B
:1047E0001C37BD4690BD000080B584B000AF786036
:1047F000114B1B68002B02D10F4B104A1A600E4B55
:104800001B68FB600C4B1A687B6813446A46934232
:1048100007D900F09DF802460C2313604FF0FF33D8
:1048200006E0054B1A687B681344034A1360FB6873
:1048300018461037BD4680BD2C03002040030020E1
:1048400080B483B000AF78604FF0FF3318460C3768
:10485000BD4680BC704780B483B000AF78603960DB
:104860003B684FF400525A60002318460C37BD468F
:1048700080BC704780B483B000AF786001231846D5
:104880000C37BD4680BC704780B485B000AFF8607F
:10489000B9607A60002318461437BD4680BC704763
:1048A00080B400AF124A124B1B6843F0010313603F
:1048B0000F4B00229A600E4A0D4B1B6823F0847345
:1048C00023F4803313600A4B0A4A5A60084A084BA3
:1048D0001B6823F480231360054B0022DA60064B2B
:1048E0004FF000629A6000BFBD4680BC704700BFB9
:1048F000003802401030002400ED00E0DFF834D032
:10490000002103E00C4B5B58435004310B480C4B27
:1049100042189A42F6D30B4A02E0002342F8043BC5
:10492000094B9A42F9D3FFF7BBFF00F017F8FFF7E6
:104930000FFC704700800120E858000800000020AC
:1049400084000020840000203C030020FEE70000DB
:10495000014B1868704700BF2000002070B50D4E55
:104960000D4CA41BA4100025A54209D10B4E0C4CE4
:1049700000F016FFA41BA4100025A54205D170BDB0
:1049800056F8253098470135EEE756F82530984718
:104990000135F2E7E0580008E0580008E058000848
:1049A000E458000802440346934200D1704703F8DC
:1049B000011BF9E70FB40A4B13B51C6824B1A369B6
:1049C00013B9204600F04EF805AB049AA168019394
:1049D000204600F057F902B0BDE8104004B070471F
:1049E00020000020014900F0A9B800BF5955000877
:1049F000002310B5044603604360836081814366F1
:104A0000C281036143618361194608225C30FFF76C
:104A1000C9FF054B6362054BA362054BE362054B7F
:104A20002462236310BD00BFFD5100081F5200081F
:104A3000575200087B52000870B54A1E682555433E
:104A40000E4605F1740100F097F8044640B10021CC
:104A500080E842000C30A06005F16802FFF7A2FF79
:104A6000204670BD836910B5044633BB8364C364BC
:104A70000365124B124A1B688262984204BF0123ED
:104A8000836100F01FF86060204600F01BF8A06012
:104A9000204600F017F80022E06004216068FFF76C
:104AA000A7FF01220921A068FFF7A2FF022212211D
:104AB000E068FFF79DFF0123A36110BD4058000887
:104AC000E5490008F8B51C4B1E68B369074613B9E1
:104AD0003046FFF7C7FF4836B4687368013B03D51B
:104AE000336833B13668F7E7B4F90C506DB1683408
:104AF000F4E704213846FFF79FFF30600028F1D12A
:104B00000C233B6004462046F8BD4FF6FF73E3815B
:104B10000123A38165662560A560656025616561E7
:104B2000A5610822294604F15C00FFF73BFF65639D
:104B3000A563A564E564E6E7405800082DE9F8435D
:104B40008046894600F14804002614B93046BDE885
:104B5000F883A5686768013F01D52468F5E7AB894C
:104B6000012B07D9B5F90E30013303D02946404651
:104B7000C84706436835EEE770B5CD1C25F0030540
:104B800008350C2D38BF0C25002D064601DBA94247
:104B900003D90C233360002070BD00F07DFD234A53
:104BA0001468214691B9224C23681BB9304600F0A5
:104BB00015FB20602946304600F010FB431C26D12F
:104BC0000C233360304600F068FDE4E70B685B1BA4
:104BD0001AD40B2B0FD90B60CD50CC18304600F0F7
:104BE0005CFD04F10B00231D20F00700C31A1BD04D
:104BF0005A42E25070BD8C420DBF63684B686360DF
:104C0000136018BF0C46E9E70C464968CAE7C41CA4
:104C100024F00304A04205D0211A304600F0DEFA49
:104C20000130CDD02560D9E770BD00BF3003002032
:104C3000340300209368013B002B10B4936008DA22
:104C40009469A34202DBCBB20A2B02D110BC00F064
:104C500019BB1368581C10601970C8B210BC70479B
:104C6000F8B506460F461446D518AC4201D10020CF
:104C700007E03A4614F8011B3046FFF7DBFF431C00
:104C8000F3D1F8BD2DE9F04F9DB00C4617460393C4
:104C9000064618B183690BB9FFF7E4FE7C4B9C42D2
:104CA00057D17468A38918075DD52369002B5AD0A2
:104CB0000023099320238DF8293030238DF82A30E2
:104CC0004FF0010BB846454615F8013B002B55D176
:104CD000B8EB070A0BD053463A4621463046FFF759
:104CE000BFFF013000F0C480099B5344099398F83A
:104CF0000030002B00F0BC8000234FF0FF32049303
:104D00000793059206938DF853301A93052229785C
:104D10006048FBF705FC05F10108049B002831D130
:104D2000D90644BF20228DF853201A0744BF2B22F6
:104D30008DF853202A782A2A2CD0079A00210A209D
:104D4000A846013598F80030303B092B6DD971B376
:104D500026E0514B9C4201D1B468A3E74F4B9C42E3
:104D600008BFF4689EE72146304600F0EFFA0028BD
:104D70009ED04FF0FF301DB0BDE8F08F252BA7D09F
:104D8000A846A0E7434A801A0BFA00F018430490A3
:104D90004546BBE7039A111D12680391002A01DB07
:104DA000079204E0524243F002030792049398F8FA
:104DB00000302E2B10D198F801302A2B08F1010178
:104DC00037D1039B1A1D1B680392002BB8BF4FF00D
:104DD000FF3308F102080593314D98F800100322C3
:104DE0002846FBF79DFB40B14023401B03FA00F02F
:104DF000049B0343049308F1010898F80010294824
:104E00008DF82810062208F10107FBF789FB00281E
:104E100034D0254B03BB039B073323F00703083330
:104E20000393099B4B4409934CE700FB0232012199
:104E300086E70023059318460A258846013198F82D
:104E40000020303A092A03D9002BC5D00590C3E7CA
:104E500005FB00200123F0E703AB00932246134B30
:104E600004A93046AFF30080B0F1FF3F8146D8D1AE
:104E7000A3895B063FF57DAF09987CE703AB009300
:104E800022460A4B04A9304600F088F8ECE700BF40
:104E900064580008A45800088458000844580008C2
:104EA000AA580008AE58000800000000614C000835
:104EB0002DE9F04791461F468A680B69DDF820808E
:104EC0009342B8BF1346C9F8003091F84320064614
:104ED0000C4612B10133C9F800302368990642BF6D
:104EE000D9F800300233C9F80030256815F00605FE
:104EF00007D104F1190AE368D9F800209B1A9D42F2
:104F000029DB94F843302268003318BF012392064E
:104F10002ED404F1430239463046C047013021D037
:104F20002368E568D9F8002003F00603042B08BFC6
:104F3000AD1AA36822690CBF25EAE57500259342E6
:104F4000C4BF9B1AED184FF000091A344D451BD110
:104F50000020BDE8F0870123524639463046C0475D
:104F6000013003D14FF0FF30BDE8F0870135C2E7D3
:104F7000E1185A1C302081F84300224494F845106F
:104F800082F843100233C4E70123224639463046F3
:104F9000C0470130E6D009F10109D7E72DE9F04318
:104FA00017460A7E85B06E2A984606460C460C9B2C
:104FB00001F1430E00F0BC801AD8632A2ED00AD823
:104FC000002A00F0C880582A00F08A8004F14205C7
:104FD00084F842202AE0642A01D0692AF6D12168A7
:104FE0001A6811F0800F23D0111D1960136827E093
:104FF000732A00F0B48008D86F2A2AD0702AE5D12D
:105000000A6842F020020A6003E0752A21D0782A5B
:10501000DCD1782284F845206E4964E01A6801F1F9
:105020004205111D1960136884F842300123A3E082
:1050300011F0400F02F104011960D7D0B2F900302D
:10504000002B03DA2D225B4284F8432062490A22B6
:1050500017E02068196810F0800F03D0081D186051
:105060000B6806E010F0400F01F104001860F7D063
:105070000B8859496F2A14BF0A220822002084F89D
:1050800043006568A560002DC0F29C80206820F078
:1050900004002060002B3FD1002D40F09580754624
:1050A000082A0BD12368DA0708D5236962689A4277
:1050B000DEBF302305F8013C05F1FF35AEEB0503FB
:1050C0002361CDF800803B4603AA21463046FFF716
:1050D000EFFE013055D14FF0FF3005B0BDE8F08351
:1050E00081F845203C492268186812F0800F00F1D1
:1050F00004051D6001D0036802E05506FBD5038856
:10510000D00744BF42F0200222601BB9226822F07F
:10511000200222601022B1E77546B3FBF2F002FBD9
:105120001033CB5C05F8013D03460028F5D1B7E705
:1051300008681A68496910F0800F04D0101D1860C3
:105140001368196007E010F0400F02F104001860C6
:105150001368F6D01980002323617546B1E71A68F9
:10516000111D19601568626800212846FBF7D8F9FF
:1051700008B1401B606063682361002384F84330FA
:105180009FE723692A4639463046C0470130A2D0FE
:1051900023689B0707D5002504F11909E368039AE2
:1051A0009B1A9D4205DBE068039B9842B8BF1846F6
:1051B00093E701234A4639463046C04701308AD03A
:1051C0000135EBE7002BA7D10B7884F8423004F1CE
:1051D000420565E7C6580008B558000838B5064CC2
:1051E0000023054608462360FFF7FEFA431C02D160
:1051F000236803B12B6038BD3803002010B50C467E
:10520000B1F90E1000F098FA0028ABBF636DA389C6
:105210001B1823F48053ACBF6365A38110BD2DE937
:10522000F0411F468B89DB0505460C46164605D521
:1052300002230022B1F90E1000F0B8F9A389B4F9E5
:105240000E1023F48053A38132463B462846BDE826
:10525000F04100F069B810B50C46B1F90E1000F03D
:10526000A5F9431CA38915BF606523F4805343F45B
:105270008053A38118BFA38110BDB1F90E1000F0B7
:10528000D3B80000F8B50E461446054618B1836938
:105290000BB9FFF7E7FB214B9C422AD16C68A3694D
:1052A000A360A3891A072ED5236963B323692068F5
:1052B000C01A6369F6B29842374604DB2146284695
:1052C00000F04AF928BBA368013BA36023685A1C7D
:1052D00022601E7063690130984204D0A389DB0705
:1052E00019D50A2E17D12146284600F035F990B17C
:1052F0000FE00B4B9C4201D1AC68D0E7094B9C42BC
:1053000008BFEC68CBE72146284600F01FF80028CC
:10531000CCD04FF0FF373846F8BD00BF64580008C6
:10532000845800084458000838B5074C054608461C
:105330001146002222601A46FEF7D8FE431C02D115
:10534000236803B12B6038BD38030020324B70B5A1
:105350001D6806460C4625B1AB6913B92846FFF710
:1053600081FB2E4B9C420FD16C68B4F90C309AB281
:1053700015072CD4D00611D40922326043F0400323
:10538000A3814FF0FF3070BD254B9C4201D1AC682A
:10539000EBE7244B9C4208BFEC68E6E7510712D5C7
:1053A000616B41B104F14403994202D0304600F0F0
:1053B00075F900236363A38923F02403A3810023E9
:1053C000636023692360A38943F00803A3812369F1
:1053D0004BB9A38903F42073B3F5007F03D02146B2
:1053E000304600F019F9A28912F001030CD0002315
:1053F000A36063695B42A361236953B9B4F90C30BC
:1054000013F08000BAD170BD920758BF6369A360E2
:10541000F2E70020F7E700BF2000002064580008F2
:10542000845800084458000838B5064C0023054647
:1054300008462360FFF704FA431C02D1236803B136
:105440002B6038BD380300208A892DE9F0410546DC
:1054500010070C465AD44B68002B05DC0B6C002B54
:1054600002DC0020BDE8F081E66A002EF9D00023BE
:1054700012F480522F682B6033D0606DA3895A07D5
:1054800005D56368C01A636B0BB1236CC01A002387
:105490000246E66A216A2846B047431CA38906D122
:1054A00029681D294BD82B4ACA40D60747D5002268
:1054B0006260D9042269226004D5421C01D12B68A4
:1054C00003B96065616B2F600029CAD004F1440301
:1054D000994202D0284600F0E1F800206063BDE860
:1054E000F081216A01232846B047411CC6D12B68B0
:1054F000002BC3D01D2B01D0162B01D12F60B0E79C
:10550000A38943F04003A381BDE8F0810F69002F18
:10551000A7D093070E6808BF4B690F6018BF002320
:10552000A6EB07088B60B8F1000F9ADD43463A46B8
:10553000216AA66A2846B047002807DCA38943F001
:105540004003A3814FF0FF30BDE8F0810744A8EB92
:105550000008E8E70100402038B50B6905460C4615
:10556000DBB118B183690BB9FFF77CFA0C4B9C4295
:1055700009D16C68B4F90C307BB121462846BDE8EE
:105580003840FFF761BF074B9C4201D1AC68F1E79F
:10559000054B9C4208BFEC68ECE7002038BD00BF1B
:1055A00064580008845800084458000838B5074C6F
:1055B000054608461146002222601A46FFF764F9A4
:1055C000431C02D1236803B12B6038BD380300208F
:1055D00070B50E46B1F90E10002990B014461D4664
:1055E00007DA00232B60B3891A0610D44FF48063C6
:1055F0000EE001AA00F0B2F80028F2DB029A02F4F1
:105600007042A2F500535A425A412A60EEE7402305
:105610000020236010B070BD8B8973B59D070646CE
:105620000C4607D504F1470323602361012363611E
:1056300002B070BD01AB6A46FFF7CAFF009905468C
:105640003046FFF799FA48B9B4F90C309A05EFD40F
:1056500023F0030343F00203A381E3E70D4BB3629E
:10566000A389206043F08003A381009B6361019BB9
:1056700020615BB1B4F90E10304600F081F828B11A
:10568000A38923F0030343F00103A381A3891D43EE
:10569000A581CDE7E54900087047704738B5054654
:1056A000002945D051F8043C0C1F002BB8BFE4186A
:1056B000FFF7F2FF1F4A1368104633B963601460A6
:1056C0002846BDE83840FFF7E8BFA3420CD921685F
:1056D0006218934204BF1A685B68636004BF521883
:1056E00022600460ECE713465A680AB1A242FAD974
:1056F00019685818A0420BD12068014458188242FA
:105700001960DDD1106852685A6001441960D7E70A
:1057100002D90C232B60D3E7206821188A4204BFEA
:1057200011685268626004BF091821605C60C7E7B5
:1057300038BD00BF3003002038B5074C0546084689
:105740001146002222601A46FFF730F8431C02D1AE
:10575000236803B12B6038BD3803002038B5074CEF
:1057600000230546084611462360FFF774F8431CE2
:1057700002D1236803B12B6038BD00BF380300207D
:1057800038B5064C0023054608462360FFF772F83B
:10579000431C02D1236803B12B6038BD38030020BD
:1057A000F8B500BFF8BC08BC9E467047F8B500BF0E
:0857B000F8BC08BC9E467047DE
:1057B80048414C5F554152545F456D756C5F457269
:1057C800726F7243616C6C6261636B0A0D0000005A
:1057D800527820436F6D706C657465210A0D000066
:1057E800547820436F6D706C657465210A0D000054
:1057F800496E6974204F4B200A0D00005245533AF8
:1058080025730A0D000000004572726F725F4861CF
:105818006E646C65720A0D000006101600061016FC
:105828000000000000000000010203040607080948
:105838000000000001020304240000200000000012
:105848000000000000000000000000000000000050
:105858000000000000000000000000000000000040
:105868000000000000000000000000000000000030
:105878000000000000000000000000000000000020
:105888000000000000000000000000000000000010
:10589800000000000000000000000000232D302B55
:1058A8002000686C4C006566674546470030313219
:1058B8003334353637383941424344454600303170
:1058C80032333435363738396162636465660000CF
:0858D80064A9FF7F010000003C
:0458E000C5010008F6
:0458E400A101000816
:1058E8001000000001000000536F667420556172BB
:1058F800742054657374210A0D0000000024F4001C
:1059080024000020000000006458000884580008A3
:1059180044580008000000000000000000000000DB
:10592800000000000000000000000000000000006F
:10593800000000000000000000000000000000005F
:10594800000000000000000000000000000000004F
:10595800000000000000000000000000000000003F
:04596800000000003B
:04000005080048FDAA
:00000001FF
